{
  "contractName": "Wrestling",
  "abi": [
    {
      "constant": true,
      "inputs": [],
      "name": "theWinner",
      "outputs": [
        {
          "name": "",
          "type": "address"
        }
      ],
      "payable": false,
      "stateMutability": "view",
      "type": "function"
    },
    {
      "constant": true,
      "inputs": [],
      "name": "wrestler2",
      "outputs": [
        {
          "name": "",
          "type": "address"
        }
      ],
      "payable": false,
      "stateMutability": "view",
      "type": "function"
    },
    {
      "constant": true,
      "inputs": [],
      "name": "wrestler1Played",
      "outputs": [
        {
          "name": "",
          "type": "bool"
        }
      ],
      "payable": false,
      "stateMutability": "view",
      "type": "function"
    },
    {
      "constant": true,
      "inputs": [],
      "name": "wrestler1",
      "outputs": [
        {
          "name": "",
          "type": "address"
        }
      ],
      "payable": false,
      "stateMutability": "view",
      "type": "function"
    },
    {
      "constant": true,
      "inputs": [],
      "name": "gameFinished",
      "outputs": [
        {
          "name": "",
          "type": "bool"
        }
      ],
      "payable": false,
      "stateMutability": "view",
      "type": "function"
    },
    {
      "constant": true,
      "inputs": [],
      "name": "wrestler2Played",
      "outputs": [
        {
          "name": "",
          "type": "bool"
        }
      ],
      "payable": false,
      "stateMutability": "view",
      "type": "function"
    },
    {
      "inputs": [],
      "payable": false,
      "stateMutability": "nonpayable",
      "type": "constructor"
    },
    {
      "anonymous": false,
      "inputs": [
        {
          "indexed": false,
          "name": "wrestler1",
          "type": "address"
        },
        {
          "indexed": false,
          "name": "wrestler2",
          "type": "address"
        }
      ],
      "name": "WrestlingStartsEvent",
      "type": "event"
    },
    {
      "anonymous": false,
      "inputs": [
        {
          "indexed": false,
          "name": "wrestler1Deposit",
          "type": "uint256"
        },
        {
          "indexed": false,
          "name": "wrestler2Deposit",
          "type": "uint256"
        }
      ],
      "name": "EndOfRoundEvent",
      "type": "event"
    },
    {
      "anonymous": false,
      "inputs": [
        {
          "indexed": false,
          "name": "winner",
          "type": "address"
        },
        {
          "indexed": false,
          "name": "gains",
          "type": "uint256"
        }
      ],
      "name": "EndOfWrestlingEvent",
      "type": "event"
    },
    {
      "constant": false,
      "inputs": [],
      "name": "registerAsAnOpponent",
      "outputs": [],
      "payable": false,
      "stateMutability": "nonpayable",
      "type": "function"
    },
    {
      "constant": false,
      "inputs": [],
      "name": "wrestle",
      "outputs": [],
      "payable": true,
      "stateMutability": "payable",
      "type": "function"
    },
    {
      "constant": false,
      "inputs": [],
      "name": "withdraw",
      "outputs": [],
      "payable": false,
      "stateMutability": "nonpayable",
      "type": "function"
    }
  ],
  "bytecode": "0x608060405234801561001057600080fd5b50336000806101000a81548173ffffffffffffffffffffffffffffffffffffffff021916908373ffffffffffffffffffffffffffffffffffffffff160217905550610946806100606000396000f300608060405260043610610099576000357c0100000000000000000000000000000000000000000000000000000000900463ffffffff16806303cc55971461009e5780633ccfd60b146100a85780639d24e482146100bf5780639e07f92a146101165780639ede38581461016d578063a8b42f1f1461019c578063e2f0a978146101b3578063f0f324971461020a578063f973728e14610239575b600080fd5b6100a6610268565b005b3480156100b457600080fd5b506100bd6104d5565b005b3480156100cb57600080fd5b506100d46105a2565b604051808273ffffffffffffffffffffffffffffffffffffffff1673ffffffffffffffffffffffffffffffffffffffff16815260200191505060405180910390f35b34801561012257600080fd5b5061012b6105c8565b604051808273ffffffffffffffffffffffffffffffffffffffff1673ffffffffffffffffffffffffffffffffffffffff16815260200191505060405180910390f35b34801561017957600080fd5b506101826105ee565b604051808215151515815260200191505060405180910390f35b3480156101a857600080fd5b506101b1610601565b005b3480156101bf57600080fd5b506101c861077b565b604051808273ffffffffffffffffffffffffffffffffffffffff1673ffffffffffffffffffffffffffffffffffffffff16815260200191505060405180910390f35b34801561021657600080fd5b5061021f6107a0565b604051808215151515815260200191505060405180910390f35b34801561024557600080fd5b5061024e6107b3565b604051808215151515815260200191505060405180910390f35b600460009054906101000a900460ff1615801561032957506000809054906101000a900473ffffffffffffffffffffffffffffffffffffffff1673ffffffffffffffffffffffffffffffffffffffff163373ffffffffffffffffffffffffffffffffffffffff1614806103285750600160009054906101000a900473ffffffffffffffffffffffffffffffffffffffff1673ffffffffffffffffffffffffffffffffffffffff163373ffffffffffffffffffffffffffffffffffffffff16145b5b151561033457600080fd5b6000809054906101000a900473ffffffffffffffffffffffffffffffffffffffff1673ffffffffffffffffffffffffffffffffffffffff163373ffffffffffffffffffffffffffffffffffffffff1614156103d55760001515600160149054906101000a900460ff1615151415156103ab57600080fd5b60018060146101000a81548160ff021916908315150217905550346002540160028190555061041d565b60001515600160159054906101000a900460ff1615151415156103f757600080fd5b60018060156101000a81548160ff02191690831515021790555034600354016003819055505b600160149054906101000a900460ff1680156104455750600160159054906101000a900460ff165b156104d357600260035402600254101515610489576104846000809054906101000a900473ffffffffffffffffffffffffffffffffffffffff166107c6565b6104d2565b60028054026003541015156104c8576104c3600160009054906101000a900473ffffffffffffffffffffffffffffffffffffffff166107c6565b6104d1565b6104d061089f565b5b5b5b565b6000600460009054906101000a900460ff16801561054057503373ffffffffffffffffffffffffffffffffffffffff16600460019054906101000a900473ffffffffffffffffffffffffffffffffffffffff1673ffffffffffffffffffffffffffffffffffffffff16145b151561054b57600080fd5b600554905060006005819055503373ffffffffffffffffffffffffffffffffffffffff166108fc829081150290604051600060405180830381858888f1935050505015801561059e573d6000803e3d6000fd5b5050565b600460019054906101000a900473ffffffffffffffffffffffffffffffffffffffff1681565b600160009054906101000a900473ffffffffffffffffffffffffffffffffffffffff1681565b600160149054906101000a900460ff1681565b600073ffffffffffffffffffffffffffffffffffffffff16600160009054906101000a900473ffffffffffffffffffffffffffffffffffffffff1673ffffffffffffffffffffffffffffffffffffffff1614151561065e57600080fd5b33600160006101000a81548173ffffffffffffffffffffffffffffffffffffffff021916908373ffffffffffffffffffffffffffffffffffffffff1602179055507fd4443f0433b17d5fcbda14745060c62f4fd645677efd560e394d49cc6b73b9e56000809054906101000a900473ffffffffffffffffffffffffffffffffffffffff16600160009054906101000a900473ffffffffffffffffffffffffffffffffffffffff16604051808373ffffffffffffffffffffffffffffffffffffffff1673ffffffffffffffffffffffffffffffffffffffff1681526020018273ffffffffffffffffffffffffffffffffffffffff1673ffffffffffffffffffffffffffffffffffffffff1681526020019250505060405180910390a1565b6000809054906101000a900473ffffffffffffffffffffffffffffffffffffffff1681565b600460009054906101000a900460ff1681565b600160159054906101000a900460ff1681565b6001600460006101000a81548160ff02191690831515021790555080600460016101000a81548173ffffffffffffffffffffffffffffffffffffffff021916908373ffffffffffffffffffffffffffffffffffffffff160217905550600354600254016005819055507f132c17ee6430a7c27424b2711c0e3f020ae13d9d62cfb347ae343c2180654bcb81600554604051808373ffffffffffffffffffffffffffffffffffffffff1673ffffffffffffffffffffffffffffffffffffffff1681526020018281526020019250505060405180910390a150565b6000600160146101000a81548160ff0219169083151502179055506000600160156101000a81548160ff0219169083151502179055507f4a06b026e39d5ecf4150ef1983227e240bcd23677c8d89479f9521c4e7bed63e600254600354604051808381526020018281526020019250505060405180910390a15600a165627a7a723058208138428673961d7af05a7eecdb3668ff8efd19cedb09c2e4ad2bda159a565fc40029",
  "source": "pragma solidity >0.4.23;\n\n    /**\n    * Example script for the Ethereum development walkthrough\n    */\n\ncontract Wrestling {\n    /**\n    * Our wrestlers\n    */\n    address public wrestler1;\n    address public wrestler2;\n\n    bool public wrestler1Played;\n    bool public wrestler2Played;\n\n    uint private wrestler1Deposit;\n    uint private wrestler2Deposit;\n\n    bool public gameFinished;\n    address public theWinner;\n    uint gains;\n\n    /**\n    * The logs that will be emitted in every step of the contract's life cycle\n    */\n    event WrestlingStartsEvent(address wrestler1, address wrestler2);\n    event EndOfRoundEvent(uint wrestler1Deposit, uint wrestler2Deposit);\n    event EndOfWrestlingEvent(address winner, uint gains);\n\n    /**\n    * The contract constructor\n    */\n    constructor() public {\n        wrestler1 = msg.sender;\n    }\n\n    /**\n    * A second wrestler can register as an opponent\n    */\n    function registerAsAnOpponent() public {\n        require(wrestler2 == address(0));\n\n        wrestler2 = msg.sender;\n\n        emit WrestlingStartsEvent(wrestler1, wrestler2);\n    }\n\n    /**\n    * Every round a player can put a sum of ether, if one of the player put in twice or\n    * more the money (in total) than the other did, the first wins\n    */\n    function wrestle() public payable {\n        require(!gameFinished && (msg.sender == wrestler1 || msg.sender == wrestler2));\n\n        if(msg.sender == wrestler1) {\n            require(wrestler1Played == false);\n            wrestler1Played = true;\n            wrestler1Deposit = wrestler1Deposit + msg.value;\n    \t} else {\n            require(wrestler2Played == false);\n            wrestler2Played = true;\n            wrestler2Deposit = wrestler2Deposit + msg.value;\n    \t}\n        if(wrestler1Played && wrestler2Played) {\n            if(wrestler1Deposit >= wrestler2Deposit * 2) {\n                endOfGame(wrestler1);\n    \t\t} else if (wrestler2Deposit >= wrestler1Deposit * 2) {\n    \t\t\tendOfGame(wrestler2);\n    \t\t} else {\n                endOfRound();\n    \t\t}\n    \t}\n    }\n\n    function endOfRound() internal {\n        wrestler1Played = false;\n        wrestler2Played = false;\n\n        emit EndOfRoundEvent(wrestler1Deposit, wrestler2Deposit);\n    }\n\n    function endOfGame(address winner) internal {\n        gameFinished = true;\n        theWinner = winner;\n\n        gains = wrestler1Deposit + wrestler2Deposit;\n        emit EndOfWrestlingEvent(winner, gains);\n    }\n\n    /**\n    * The withdraw function, following the withdraw pattern shown and explained here:\n    * http://solidity.readthedocs.io/en/develop/common-patterns.html#withdrawal-from-contracts\n    */\n    function withdraw() public {\n        require(gameFinished && theWinner == msg.sender);\n\n        uint amount = gains;\n\n        gains = 0;\n        msg.sender.transfer(amount);\n    }\n}\n",
  "sourcePath": "C:\\Node\\Samuel-assignment\\contracts\\Wrestling.sol",
  "compiler": {
    "name": "solc",
    "version": "0.4.24+commit.e67f0147.Emscripten.clang"
  },
  "schemaVersion": "2.0.1",
  "updatedAt": "2018-12-16T21:44:52.673Z"
}